{
	"contracts/GSP SOD TRAINING/hello1.sol": {
		"EnumData": {
			"abi": [
				{
					"inputs": [],
					"name": "getFullInfo",
					"outputs": [
						{
							"internalType": "string",
							"name": "",
							"type": "string"
						},
						{
							"internalType": "uint256",
							"name": "",
							"type": "uint256"
						},
						{
							"internalType": "uint256",
							"name": "",
							"type": "uint256"
						}
					],
					"stateMutability": "view",
					"type": "function"
				},
				{
					"inputs": [],
					"name": "getName",
					"outputs": [
						{
							"internalType": "string",
							"name": "",
							"type": "string"
						}
					],
					"stateMutability": "view",
					"type": "function"
				},
				{
					"inputs": [],
					"name": "setStudent",
					"outputs": [],
					"stateMutability": "nonpayable",
					"type": "function"
				}
			],
			"devdoc": {
				"kind": "dev",
				"methods": {},
				"version": 1
			},
			"evm": {
				"assembly": "    /* \"contracts/GSP SOD TRAINING/hello1.sol\":127:816  contract EnumData{... */\n  mstore(0x40, 0x80)\n    /* \"contracts/GSP SOD TRAINING/hello1.sol\":235:245  Size.SMALL */\n  0x00\n    /* \"contracts/GSP SOD TRAINING/hello1.sol\":221:245  Size choice = Size.SMALL */\n  dup1\n  exp(0x0100, 0x00)\n  dup2\n  sload\n  dup2\n  0xff\n  mul\n  not\n  and\n  swap1\n  dup4\n  0x02\n  dup2\n  gt\n  iszero\n  tag_1\n  jumpi\n  tag_2\n  tag_3\n  jump\t// in\ntag_2:\ntag_1:\n  mul\n  or\n  swap1\n  sstore\n  pop\n    /* \"contracts/GSP SOD TRAINING/hello1.sol\":270:281  Gender.MALE */\n  0x00\n    /* \"contracts/GSP SOD TRAINING/hello1.sol\":252:281  Gender mygender = Gender.MALE */\n  dup1\n  exp(0x0100, 0x01)\n  dup2\n  sload\n  dup2\n  0xff\n  mul\n  not\n  and\n  swap1\n  dup4\n  0x01\n  dup2\n  gt\n  iszero\n  tag_4\n  jumpi\n  tag_5\n  tag_3\n  jump\t// in\ntag_5:\ntag_4:\n  mul\n  or\n  swap1\n  sstore\n  pop\n    /* \"contracts/GSP SOD TRAINING/hello1.sol\":127:816  contract EnumData{... */\n  callvalue\n  dup1\n  iszero\n  tag_6\n  jumpi\n  0x00\n  dup1\n  revert\ntag_6:\n  pop\n  jump(tag_7)\n    /* \"#utility.yul\":7:187   */\ntag_3:\n    /* \"#utility.yul\":55:132   */\n  0x4e487b7100000000000000000000000000000000000000000000000000000000\n    /* \"#utility.yul\":52:53   */\n  0x00\n    /* \"#utility.yul\":45:133   */\n  mstore\n    /* \"#utility.yul\":152:156   */\n  0x21\n    /* \"#utility.yul\":149:150   */\n  0x04\n    /* \"#utility.yul\":142:157   */\n  mstore\n    /* \"#utility.yul\":176:180   */\n  0x24\n    /* \"#utility.yul\":173:174   */\n  0x00\n    /* \"#utility.yul\":166:181   */\n  revert\n    /* \"contracts/GSP SOD TRAINING/hello1.sol\":127:816  contract EnumData{... */\ntag_7:\n  dataSize(sub_0)\n  dup1\n  dataOffset(sub_0)\n  0x00\n  codecopy\n  0x00\n  return\nstop\n\nsub_0: assembly {\n        /* \"contracts/GSP SOD TRAINING/hello1.sol\":127:816  contract EnumData{... */\n      mstore(0x40, 0x80)\n      callvalue\n      dup1\n      iszero\n      tag_1\n      jumpi\n      0x00\n      dup1\n      revert\n    tag_1:\n      pop\n      jumpi(tag_2, lt(calldatasize, 0x04))\n      shr(0xe0, calldataload(0x00))\n      dup1\n      0x17d7de7c\n      eq\n      tag_3\n      jumpi\n      dup1\n      0x23e898e9\n      eq\n      tag_4\n      jumpi\n      dup1\n      0x69dd9807\n      eq\n      tag_5\n      jumpi\n    tag_2:\n      0x00\n      dup1\n      revert\n        /* \"contracts/GSP SOD TRAINING/hello1.sol\":483:573  function getName () public  view returns (string memory){... */\n    tag_3:\n      tag_6\n      tag_7\n      jump\t// in\n    tag_6:\n      mload(0x40)\n      tag_8\n      swap2\n      swap1\n      tag_9\n      jump\t// in\n    tag_8:\n      mload(0x40)\n      dup1\n      swap2\n      sub\n      swap1\n      return\n        /* \"contracts/GSP SOD TRAINING/hello1.sol\":397:475  function setStudent() public{... */\n    tag_4:\n      tag_10\n      tag_11\n      jump\t// in\n    tag_10:\n      stop\n        /* \"contracts/GSP SOD TRAINING/hello1.sol\":579:735  function getFullInfo() public view  returns (... */\n    tag_5:\n      tag_12\n      tag_13\n      jump\t// in\n    tag_12:\n      mload(0x40)\n      tag_14\n      swap4\n      swap3\n      swap2\n      swap1\n      tag_15\n      jump\t// in\n    tag_14:\n      mload(0x40)\n      dup1\n      swap2\n      sub\n      swap1\n      return\n        /* \"contracts/GSP SOD TRAINING/hello1.sol\":483:573  function getName () public  view returns (string memory){... */\n    tag_7:\n        /* \"contracts/GSP SOD TRAINING/hello1.sol\":525:538  string memory */\n      0x60\n        /* \"contracts/GSP SOD TRAINING/hello1.sol\":558:560  s1 */\n      0x01\n        /* \"contracts/GSP SOD TRAINING/hello1.sol\":558:565  s1.name */\n      0x00\n      add\n        /* \"contracts/GSP SOD TRAINING/hello1.sol\":550:565  return  s1.name */\n      dup1\n      sload\n      tag_17\n      swap1\n      tag_18\n      jump\t// in\n    tag_17:\n      dup1\n      0x1f\n      add\n      0x20\n      dup1\n      swap2\n      div\n      mul\n      0x20\n      add\n      mload(0x40)\n      swap1\n      dup2\n      add\n      0x40\n      mstore\n      dup1\n      swap3\n      swap2\n      swap1\n      dup2\n      dup2\n      mstore\n      0x20\n      add\n      dup3\n      dup1\n      sload\n      tag_19\n      swap1\n      tag_18\n      jump\t// in\n    tag_19:\n      dup1\n      iszero\n      tag_20\n      jumpi\n      dup1\n      0x1f\n      lt\n      tag_21\n      jumpi\n      0x0100\n      dup1\n      dup4\n      sload\n      div\n      mul\n      dup4\n      mstore\n      swap2\n      0x20\n      add\n      swap2\n      jump(tag_20)\n    tag_21:\n      dup3\n      add\n      swap2\n      swap1\n      0x00\n      mstore\n      keccak256(0x00, 0x20)\n      swap1\n    tag_22:\n      dup2\n      sload\n      dup2\n      mstore\n      swap1\n      0x01\n      add\n      swap1\n      0x20\n      add\n      dup1\n      dup4\n      gt\n      tag_22\n      jumpi\n      dup3\n      swap1\n      sub\n      0x1f\n      and\n      dup3\n      add\n      swap2\n    tag_20:\n      pop\n      pop\n      pop\n      pop\n      pop\n      swap1\n      pop\n        /* \"contracts/GSP SOD TRAINING/hello1.sol\":483:573  function getName () public  view returns (string memory){... */\n      swap1\n      jump\t// out\n        /* \"contracts/GSP SOD TRAINING/hello1.sol\":397:475  function setStudent() public{... */\n    tag_11:\n        /* \"contracts/GSP SOD TRAINING/hello1.sol\":441:467  Student(\"john doe\", 10, 1) */\n      mload(0x40)\n      dup1\n      0x60\n      add\n      0x40\n      mstore\n      dup1\n      mload(0x40)\n      dup1\n      0x40\n      add\n      0x40\n      mstore\n      dup1\n      0x08\n      dup2\n      mstore\n      0x20\n      add\n      0x6a6f686e20646f65000000000000000000000000000000000000000000000000\n      dup2\n      mstore\n      pop\n      dup2\n      mstore\n      0x20\n      add\n        /* \"contracts/GSP SOD TRAINING/hello1.sol\":461:463  10 */\n      0x0a\n        /* \"contracts/GSP SOD TRAINING/hello1.sol\":441:467  Student(\"john doe\", 10, 1) */\n      dup2\n      mstore\n      0x20\n      add\n        /* \"contracts/GSP SOD TRAINING/hello1.sol\":465:466  1 */\n      0x01\n        /* \"contracts/GSP SOD TRAINING/hello1.sol\":441:467  Student(\"john doe\", 10, 1) */\n      dup2\n      mstore\n      pop\n        /* \"contracts/GSP SOD TRAINING/hello1.sol\":436:438  s1 */\n      0x01\n        /* \"contracts/GSP SOD TRAINING/hello1.sol\":436:467  s1 = Student(\"john doe\", 10, 1) */\n      0x00\n      dup3\n      add\n      mload\n      dup2\n      0x00\n      add\n      swap1\n      dup2\n      tag_24\n      swap2\n      swap1\n      tag_25\n      jump\t// in\n    tag_24:\n      pop\n      0x20\n      dup3\n      add\n      mload\n      dup2\n      0x01\n      add\n      sstore\n      0x40\n      dup3\n      add\n      mload\n      dup2\n      0x02\n      add\n      sstore\n      swap1\n      pop\n      pop\n        /* \"contracts/GSP SOD TRAINING/hello1.sol\":397:475  function setStudent() public{... */\n      jump\t// out\n        /* \"contracts/GSP SOD TRAINING/hello1.sol\":579:735  function getFullInfo() public view  returns (... */\n    tag_13:\n        /* \"contracts/GSP SOD TRAINING/hello1.sol\":634:647  string memory */\n      0x60\n        /* \"contracts/GSP SOD TRAINING/hello1.sol\":659:663  uint */\n      0x00\n        /* \"contracts/GSP SOD TRAINING/hello1.sol\":674:678  uint */\n      dup1\n        /* \"contracts/GSP SOD TRAINING/hello1.sol\":704:706  s1 */\n      0x01\n        /* \"contracts/GSP SOD TRAINING/hello1.sol\":704:711  s1.name */\n      0x00\n      add\n        /* \"contracts/GSP SOD TRAINING/hello1.sol\":713:715  s1 */\n      0x01\n        /* \"contracts/GSP SOD TRAINING/hello1.sol\":713:719  s1.age */\n      dup1\n      add\n      sload\n        /* \"contracts/GSP SOD TRAINING/hello1.sol\":721:723  s1 */\n      0x01\n        /* \"contracts/GSP SOD TRAINING/hello1.sol\":721:726  s1.id */\n      0x02\n      add\n      sload\n        /* \"contracts/GSP SOD TRAINING/hello1.sol\":696:727  return (s1.name, s1.age, s1.id) */\n      dup3\n      dup1\n      sload\n      tag_27\n      swap1\n      tag_18\n      jump\t// in\n    tag_27:\n      dup1\n      0x1f\n      add\n      0x20\n      dup1\n      swap2\n      div\n      mul\n      0x20\n      add\n      mload(0x40)\n      swap1\n      dup2\n      add\n      0x40\n      mstore\n      dup1\n      swap3\n      swap2\n      swap1\n      dup2\n      dup2\n      mstore\n      0x20\n      add\n      dup3\n      dup1\n      sload\n      tag_28\n      swap1\n      tag_18\n      jump\t// in\n    tag_28:\n      dup1\n      iszero\n      tag_29\n      jumpi\n      dup1\n      0x1f\n      lt\n      tag_30\n      jumpi\n      0x0100\n      dup1\n      dup4\n      sload\n      div\n      mul\n      dup4\n      mstore\n      swap2\n      0x20\n      add\n      swap2\n      jump(tag_29)\n    tag_30:\n      dup3\n      add\n      swap2\n      swap1\n      0x00\n      mstore\n      keccak256(0x00, 0x20)\n      swap1\n    tag_31:\n      dup2\n      sload\n      dup2\n      mstore\n      swap1\n      0x01\n      add\n      swap1\n      0x20\n      add\n      dup1\n      dup4\n      gt\n      tag_31\n      jumpi\n      dup3\n      swap1\n      sub\n      0x1f\n      and\n      dup3\n      add\n      swap2\n    tag_29:\n      pop\n      pop\n      pop\n      pop\n      pop\n      swap3\n      pop\n      swap3\n      pop\n      swap3\n      pop\n      swap3\n      pop\n        /* \"contracts/GSP SOD TRAINING/hello1.sol\":579:735  function getFullInfo() public view  returns (... */\n      swap1\n      swap2\n      swap3\n      jump\t// out\n        /* \"#utility.yul\":7:106   */\n    tag_32:\n        /* \"#utility.yul\":59:65   */\n      0x00\n        /* \"#utility.yul\":93:98   */\n      dup2\n        /* \"#utility.yul\":87:99   */\n      mload\n        /* \"#utility.yul\":77:99   */\n      swap1\n      pop\n        /* \"#utility.yul\":7:106   */\n      swap2\n      swap1\n      pop\n      jump\t// out\n        /* \"#utility.yul\":112:281   */\n    tag_33:\n        /* \"#utility.yul\":196:207   */\n      0x00\n        /* \"#utility.yul\":230:236   */\n      dup3\n        /* \"#utility.yul\":225:228   */\n      dup3\n        /* \"#utility.yul\":218:237   */\n      mstore\n        /* \"#utility.yul\":270:274   */\n      0x20\n        /* \"#utility.yul\":265:268   */\n      dup3\n        /* \"#utility.yul\":261:275   */\n      add\n        /* \"#utility.yul\":246:275   */\n      swap1\n      pop\n        /* \"#utility.yul\":112:281   */\n      swap3\n      swap2\n      pop\n      pop\n      jump\t// out\n        /* \"#utility.yul\":287:426   */\n    tag_34:\n        /* \"#utility.yul\":376:382   */\n      dup3\n        /* \"#utility.yul\":371:374   */\n      dup2\n        /* \"#utility.yul\":366:369   */\n      dup4\n        /* \"#utility.yul\":360:383   */\n      mcopy\n        /* \"#utility.yul\":417:418   */\n      0x00\n        /* \"#utility.yul\":408:414   */\n      dup4\n        /* \"#utility.yul\":403:406   */\n      dup4\n        /* \"#utility.yul\":399:415   */\n      add\n        /* \"#utility.yul\":392:419   */\n      mstore\n        /* \"#utility.yul\":287:426   */\n      pop\n      pop\n      pop\n      jump\t// out\n        /* \"#utility.yul\":432:534   */\n    tag_35:\n        /* \"#utility.yul\":473:479   */\n      0x00\n        /* \"#utility.yul\":524:526   */\n      0x1f\n        /* \"#utility.yul\":520:527   */\n      not\n        /* \"#utility.yul\":515:517   */\n      0x1f\n        /* \"#utility.yul\":508:513   */\n      dup4\n        /* \"#utility.yul\":504:518   */\n      add\n        /* \"#utility.yul\":500:528   */\n      and\n        /* \"#utility.yul\":490:528   */\n      swap1\n      pop\n        /* \"#utility.yul\":432:534   */\n      swap2\n      swap1\n      pop\n      jump\t// out\n        /* \"#utility.yul\":540:917   */\n    tag_36:\n        /* \"#utility.yul\":628:631   */\n      0x00\n        /* \"#utility.yul\":656:695   */\n      tag_62\n        /* \"#utility.yul\":689:694   */\n      dup3\n        /* \"#utility.yul\":656:695   */\n      tag_32\n      jump\t// in\n    tag_62:\n        /* \"#utility.yul\":711:782   */\n      tag_63\n        /* \"#utility.yul\":775:781   */\n      dup2\n        /* \"#utility.yul\":770:773   */\n      dup6\n        /* \"#utility.yul\":711:782   */\n      tag_33\n      jump\t// in\n    tag_63:\n        /* \"#utility.yul\":704:782   */\n      swap4\n      pop\n        /* \"#utility.yul\":791:856   */\n      tag_64\n        /* \"#utility.yul\":849:855   */\n      dup2\n        /* \"#utility.yul\":844:847   */\n      dup6\n        /* \"#utility.yul\":837:841   */\n      0x20\n        /* \"#utility.yul\":830:835   */\n      dup7\n        /* \"#utility.yul\":826:842   */\n      add\n        /* \"#utility.yul\":791:856   */\n      tag_34\n      jump\t// in\n    tag_64:\n        /* \"#utility.yul\":881:910   */\n      tag_65\n        /* \"#utility.yul\":903:909   */\n      dup2\n        /* \"#utility.yul\":881:910   */\n      tag_35\n      jump\t// in\n    tag_65:\n        /* \"#utility.yul\":876:879   */\n      dup5\n        /* \"#utility.yul\":872:911   */\n      add\n        /* \"#utility.yul\":865:911   */\n      swap2\n      pop\n        /* \"#utility.yul\":632:917   */\n      pop\n        /* \"#utility.yul\":540:917   */\n      swap3\n      swap2\n      pop\n      pop\n      jump\t// out\n        /* \"#utility.yul\":923:1236   */\n    tag_9:\n        /* \"#utility.yul\":1036:1040   */\n      0x00\n        /* \"#utility.yul\":1074:1076   */\n      0x20\n        /* \"#utility.yul\":1063:1072   */\n      dup3\n        /* \"#utility.yul\":1059:1077   */\n      add\n        /* \"#utility.yul\":1051:1077   */\n      swap1\n      pop\n        /* \"#utility.yul\":1123:1132   */\n      dup2\n        /* \"#utility.yul\":1117:1121   */\n      dup2\n        /* \"#utility.yul\":1113:1133   */\n      sub\n        /* \"#utility.yul\":1109:1110   */\n      0x00\n        /* \"#utility.yul\":1098:1107   */\n      dup4\n        /* \"#utility.yul\":1094:1111   */\n      add\n        /* \"#utility.yul\":1087:1134   */\n      mstore\n        /* \"#utility.yul\":1151:1229   */\n      tag_67\n        /* \"#utility.yul\":1224:1228   */\n      dup2\n        /* \"#utility.yul\":1215:1221   */\n      dup5\n        /* \"#utility.yul\":1151:1229   */\n      tag_36\n      jump\t// in\n    tag_67:\n        /* \"#utility.yul\":1143:1229   */\n      swap1\n      pop\n        /* \"#utility.yul\":923:1236   */\n      swap3\n      swap2\n      pop\n      pop\n      jump\t// out\n        /* \"#utility.yul\":1242:1319   */\n    tag_37:\n        /* \"#utility.yul\":1279:1286   */\n      0x00\n        /* \"#utility.yul\":1308:1313   */\n      dup2\n        /* \"#utility.yul\":1297:1313   */\n      swap1\n      pop\n        /* \"#utility.yul\":1242:1319   */\n      swap2\n      swap1\n      pop\n      jump\t// out\n        /* \"#utility.yul\":1325:1443   */\n    tag_38:\n        /* \"#utility.yul\":1412:1436   */\n      tag_70\n        /* \"#utility.yul\":1430:1435   */\n      dup2\n        /* \"#utility.yul\":1412:1436   */\n      tag_37\n      jump\t// in\n    tag_70:\n        /* \"#utility.yul\":1407:1410   */\n      dup3\n        /* \"#utility.yul\":1400:1437   */\n      mstore\n        /* \"#utility.yul\":1325:1443   */\n      pop\n      pop\n      jump\t// out\n        /* \"#utility.yul\":1449:1982   */\n    tag_15:\n        /* \"#utility.yul\":1618:1622   */\n      0x00\n        /* \"#utility.yul\":1656:1658   */\n      0x60\n        /* \"#utility.yul\":1645:1654   */\n      dup3\n        /* \"#utility.yul\":1641:1659   */\n      add\n        /* \"#utility.yul\":1633:1659   */\n      swap1\n      pop\n        /* \"#utility.yul\":1705:1714   */\n      dup2\n        /* \"#utility.yul\":1699:1703   */\n      dup2\n        /* \"#utility.yul\":1695:1715   */\n      sub\n        /* \"#utility.yul\":1691:1692   */\n      0x00\n        /* \"#utility.yul\":1680:1689   */\n      dup4\n        /* \"#utility.yul\":1676:1693   */\n      add\n        /* \"#utility.yul\":1669:1716   */\n      mstore\n        /* \"#utility.yul\":1733:1811   */\n      tag_72\n        /* \"#utility.yul\":1806:1810   */\n      dup2\n        /* \"#utility.yul\":1797:1803   */\n      dup7\n        /* \"#utility.yul\":1733:1811   */\n      tag_36\n      jump\t// in\n    tag_72:\n        /* \"#utility.yul\":1725:1811   */\n      swap1\n      pop\n        /* \"#utility.yul\":1821:1893   */\n      tag_73\n        /* \"#utility.yul\":1889:1891   */\n      0x20\n        /* \"#utility.yul\":1878:1887   */\n      dup4\n        /* \"#utility.yul\":1874:1892   */\n      add\n        /* \"#utility.yul\":1865:1871   */\n      dup6\n        /* \"#utility.yul\":1821:1893   */\n      tag_38\n      jump\t// in\n    tag_73:\n        /* \"#utility.yul\":1903:1975   */\n      tag_74\n        /* \"#utility.yul\":1971:1973   */\n      0x40\n        /* \"#utility.yul\":1960:1969   */\n      dup4\n        /* \"#utility.yul\":1956:1974   */\n      add\n        /* \"#utility.yul\":1947:1953   */\n      dup5\n        /* \"#utility.yul\":1903:1975   */\n      tag_38\n      jump\t// in\n    tag_74:\n        /* \"#utility.yul\":1449:1982   */\n      swap5\n      swap4\n      pop\n      pop\n      pop\n      pop\n      jump\t// out\n        /* \"#utility.yul\":1988:2168   */\n    tag_39:\n        /* \"#utility.yul\":2036:2113   */\n      0x4e487b7100000000000000000000000000000000000000000000000000000000\n        /* \"#utility.yul\":2033:2034   */\n      0x00\n        /* \"#utility.yul\":2026:2114   */\n      mstore\n        /* \"#utility.yul\":2133:2137   */\n      0x22\n        /* \"#utility.yul\":2130:2131   */\n      0x04\n        /* \"#utility.yul\":2123:2138   */\n      mstore\n        /* \"#utility.yul\":2157:2161   */\n      0x24\n        /* \"#utility.yul\":2154:2155   */\n      0x00\n        /* \"#utility.yul\":2147:2162   */\n      revert\n        /* \"#utility.yul\":2174:2494   */\n    tag_18:\n        /* \"#utility.yul\":2218:2224   */\n      0x00\n        /* \"#utility.yul\":2255:2256   */\n      0x02\n        /* \"#utility.yul\":2249:2253   */\n      dup3\n        /* \"#utility.yul\":2245:2257   */\n      div\n        /* \"#utility.yul\":2235:2257   */\n      swap1\n      pop\n        /* \"#utility.yul\":2302:2303   */\n      0x01\n        /* \"#utility.yul\":2296:2300   */\n      dup3\n        /* \"#utility.yul\":2292:2304   */\n      and\n        /* \"#utility.yul\":2323:2341   */\n      dup1\n        /* \"#utility.yul\":2313:2394   */\n      tag_77\n      jumpi\n        /* \"#utility.yul\":2379:2383   */\n      0x7f\n        /* \"#utility.yul\":2371:2377   */\n      dup3\n        /* \"#utility.yul\":2367:2384   */\n      and\n        /* \"#utility.yul\":2357:2384   */\n      swap2\n      pop\n        /* \"#utility.yul\":2313:2394   */\n    tag_77:\n        /* \"#utility.yul\":2441:2443   */\n      0x20\n        /* \"#utility.yul\":2433:2439   */\n      dup3\n        /* \"#utility.yul\":2430:2444   */\n      lt\n        /* \"#utility.yul\":2410:2428   */\n      dup2\n        /* \"#utility.yul\":2407:2445   */\n      sub\n        /* \"#utility.yul\":2404:2488   */\n      tag_78\n      jumpi\n        /* \"#utility.yul\":2460:2478   */\n      tag_79\n      tag_39\n      jump\t// in\n    tag_79:\n        /* \"#utility.yul\":2404:2488   */\n    tag_78:\n        /* \"#utility.yul\":2225:2494   */\n      pop\n        /* \"#utility.yul\":2174:2494   */\n      swap2\n      swap1\n      pop\n      jump\t// out\n        /* \"#utility.yul\":2500:2680   */\n    tag_40:\n        /* \"#utility.yul\":2548:2625   */\n      0x4e487b7100000000000000000000000000000000000000000000000000000000\n        /* \"#utility.yul\":2545:2546   */\n      0x00\n        /* \"#utility.yul\":2538:2626   */\n      mstore\n        /* \"#utility.yul\":2645:2649   */\n      0x41\n        /* \"#utility.yul\":2642:2643   */\n      0x04\n        /* \"#utility.yul\":2635:2650   */\n      mstore\n        /* \"#utility.yul\":2669:2673   */\n      0x24\n        /* \"#utility.yul\":2666:2667   */\n      0x00\n        /* \"#utility.yul\":2659:2674   */\n      revert\n        /* \"#utility.yul\":2686:2827   */\n    tag_41:\n        /* \"#utility.yul\":2735:2739   */\n      0x00\n        /* \"#utility.yul\":2758:2761   */\n      dup2\n        /* \"#utility.yul\":2750:2761   */\n      swap1\n      pop\n        /* \"#utility.yul\":2781:2784   */\n      dup2\n        /* \"#utility.yul\":2778:2779   */\n      0x00\n        /* \"#utility.yul\":2771:2785   */\n      mstore\n        /* \"#utility.yul\":2815:2819   */\n      0x20\n        /* \"#utility.yul\":2812:2813   */\n      0x00\n        /* \"#utility.yul\":2802:2820   */\n      keccak256\n        /* \"#utility.yul\":2794:2820   */\n      swap1\n      pop\n        /* \"#utility.yul\":2686:2827   */\n      swap2\n      swap1\n      pop\n      jump\t// out\n        /* \"#utility.yul\":2833:2926   */\n    tag_42:\n        /* \"#utility.yul\":2870:2876   */\n      0x00\n        /* \"#utility.yul\":2917:2919   */\n      0x20\n        /* \"#utility.yul\":2912:2914   */\n      0x1f\n        /* \"#utility.yul\":2905:2910   */\n      dup4\n        /* \"#utility.yul\":2901:2915   */\n      add\n        /* \"#utility.yul\":2897:2920   */\n      div\n        /* \"#utility.yul\":2887:2920   */\n      swap1\n      pop\n        /* \"#utility.yul\":2833:2926   */\n      swap2\n      swap1\n      pop\n      jump\t// out\n        /* \"#utility.yul\":2932:3039   */\n    tag_43:\n        /* \"#utility.yul\":2976:2984   */\n      0x00\n        /* \"#utility.yul\":3026:3031   */\n      dup3\n        /* \"#utility.yul\":3020:3024   */\n      dup3\n        /* \"#utility.yul\":3016:3032   */\n      shl\n        /* \"#utility.yul\":2995:3032   */\n      swap1\n      pop\n        /* \"#utility.yul\":2932:3039   */\n      swap3\n      swap2\n      pop\n      pop\n      jump\t// out\n        /* \"#utility.yul\":3045:3438   */\n    tag_44:\n        /* \"#utility.yul\":3114:3120   */\n      0x00\n        /* \"#utility.yul\":3164:3165   */\n      0x08\n        /* \"#utility.yul\":3152:3162   */\n      dup4\n        /* \"#utility.yul\":3148:3166   */\n      mul\n        /* \"#utility.yul\":3187:3284   */\n      tag_85\n        /* \"#utility.yul\":3217:3283   */\n      0xffffffffffffffffffffffffffffffffffffffffffffffffffffffffffffffff\n        /* \"#utility.yul\":3206:3215   */\n      dup3\n        /* \"#utility.yul\":3187:3284   */\n      tag_43\n      jump\t// in\n    tag_85:\n        /* \"#utility.yul\":3305:3344   */\n      tag_86\n        /* \"#utility.yul\":3335:3343   */\n      dup7\n        /* \"#utility.yul\":3324:3333   */\n      dup4\n        /* \"#utility.yul\":3305:3344   */\n      tag_43\n      jump\t// in\n    tag_86:\n        /* \"#utility.yul\":3293:3344   */\n      swap6\n      pop\n        /* \"#utility.yul\":3377:3381   */\n      dup1\n        /* \"#utility.yul\":3373:3382   */\n      not\n        /* \"#utility.yul\":3366:3371   */\n      dup5\n        /* \"#utility.yul\":3362:3383   */\n      and\n        /* \"#utility.yul\":3353:3383   */\n      swap4\n      pop\n        /* \"#utility.yul\":3426:3430   */\n      dup1\n        /* \"#utility.yul\":3416:3424   */\n      dup7\n        /* \"#utility.yul\":3412:3431   */\n      and\n        /* \"#utility.yul\":3405:3410   */\n      dup5\n        /* \"#utility.yul\":3402:3432   */\n      or\n        /* \"#utility.yul\":3392:3432   */\n      swap3\n      pop\n        /* \"#utility.yul\":3121:3438   */\n      pop\n      pop\n        /* \"#utility.yul\":3045:3438   */\n      swap4\n      swap3\n      pop\n      pop\n      pop\n      jump\t// out\n        /* \"#utility.yul\":3444:3504   */\n    tag_45:\n        /* \"#utility.yul\":3472:3475   */\n      0x00\n        /* \"#utility.yul\":3493:3498   */\n      dup2\n        /* \"#utility.yul\":3486:3498   */\n      swap1\n      pop\n        /* \"#utility.yul\":3444:3504   */\n      swap2\n      swap1\n      pop\n      jump\t// out\n        /* \"#utility.yul\":3510:3652   */\n    tag_46:\n        /* \"#utility.yul\":3560:3569   */\n      0x00\n        /* \"#utility.yul\":3593:3646   */\n      tag_89\n        /* \"#utility.yul\":3611:3645   */\n      tag_90\n        /* \"#utility.yul\":3620:3644   */\n      tag_91\n        /* \"#utility.yul\":3638:3643   */\n      dup5\n        /* \"#utility.yul\":3620:3644   */\n      tag_37\n      jump\t// in\n    tag_91:\n        /* \"#utility.yul\":3611:3645   */\n      tag_45\n      jump\t// in\n    tag_90:\n        /* \"#utility.yul\":3593:3646   */\n      tag_37\n      jump\t// in\n    tag_89:\n        /* \"#utility.yul\":3580:3646   */\n      swap1\n      pop\n        /* \"#utility.yul\":3510:3652   */\n      swap2\n      swap1\n      pop\n      jump\t// out\n        /* \"#utility.yul\":3658:3733   */\n    tag_47:\n        /* \"#utility.yul\":3701:3704   */\n      0x00\n        /* \"#utility.yul\":3722:3727   */\n      dup2\n        /* \"#utility.yul\":3715:3727   */\n      swap1\n      pop\n        /* \"#utility.yul\":3658:3733   */\n      swap2\n      swap1\n      pop\n      jump\t// out\n        /* \"#utility.yul\":3739:4008   */\n    tag_48:\n        /* \"#utility.yul\":3849:3888   */\n      tag_94\n        /* \"#utility.yul\":3880:3887   */\n      dup4\n        /* \"#utility.yul\":3849:3888   */\n      tag_46\n      jump\t// in\n    tag_94:\n        /* \"#utility.yul\":3910:4001   */\n      tag_95\n        /* \"#utility.yul\":3959:4000   */\n      tag_96\n        /* \"#utility.yul\":3983:3999   */\n      dup3\n        /* \"#utility.yul\":3959:4000   */\n      tag_47\n      jump\t// in\n    tag_96:\n        /* \"#utility.yul\":3951:3957   */\n      dup5\n        /* \"#utility.yul\":3944:3948   */\n      dup5\n        /* \"#utility.yul\":3938:3949   */\n      sload\n        /* \"#utility.yul\":3910:4001   */\n      tag_44\n      jump\t// in\n    tag_95:\n        /* \"#utility.yul\":3904:3908   */\n      dup3\n        /* \"#utility.yul\":3897:4002   */\n      sstore\n        /* \"#utility.yul\":3815:4008   */\n      pop\n        /* \"#utility.yul\":3739:4008   */\n      pop\n      pop\n      pop\n      jump\t// out\n        /* \"#utility.yul\":4014:4087   */\n    tag_49:\n        /* \"#utility.yul\":4059:4062   */\n      0x00\n        /* \"#utility.yul\":4014:4087   */\n      swap1\n      jump\t// out\n        /* \"#utility.yul\":4093:4282   */\n    tag_50:\n        /* \"#utility.yul\":4170:4202   */\n      tag_99\n      tag_49\n      jump\t// in\n    tag_99:\n        /* \"#utility.yul\":4211:4276   */\n      tag_100\n        /* \"#utility.yul\":4269:4275   */\n      dup2\n        /* \"#utility.yul\":4261:4267   */\n      dup5\n        /* \"#utility.yul\":4255:4259   */\n      dup5\n        /* \"#utility.yul\":4211:4276   */\n      tag_48\n      jump\t// in\n    tag_100:\n        /* \"#utility.yul\":4146:4282   */\n      pop\n        /* \"#utility.yul\":4093:4282   */\n      pop\n      pop\n      jump\t// out\n        /* \"#utility.yul\":4288:4474   */\n    tag_51:\n        /* \"#utility.yul\":4348:4468   */\n    tag_102:\n        /* \"#utility.yul\":4365:4368   */\n      dup2\n        /* \"#utility.yul\":4358:4363   */\n      dup2\n        /* \"#utility.yul\":4355:4369   */\n      lt\n        /* \"#utility.yul\":4348:4468   */\n      iszero\n      tag_104\n      jumpi\n        /* \"#utility.yul\":4419:4458   */\n      tag_105\n        /* \"#utility.yul\":4456:4457   */\n      0x00\n        /* \"#utility.yul\":4449:4454   */\n      dup3\n        /* \"#utility.yul\":4419:4458   */\n      tag_50\n      jump\t// in\n    tag_105:\n        /* \"#utility.yul\":4392:4393   */\n      0x01\n        /* \"#utility.yul\":4385:4390   */\n      dup2\n        /* \"#utility.yul\":4381:4394   */\n      add\n        /* \"#utility.yul\":4372:4394   */\n      swap1\n      pop\n        /* \"#utility.yul\":4348:4468   */\n      jump(tag_102)\n    tag_104:\n        /* \"#utility.yul\":4288:4474   */\n      pop\n      pop\n      jump\t// out\n        /* \"#utility.yul\":4480:5023   */\n    tag_52:\n        /* \"#utility.yul\":4581:4583   */\n      0x1f\n        /* \"#utility.yul\":4576:4579   */\n      dup3\n        /* \"#utility.yul\":4573:4584   */\n      gt\n        /* \"#utility.yul\":4570:5016   */\n      iszero\n      tag_107\n      jumpi\n        /* \"#utility.yul\":4615:4653   */\n      tag_108\n        /* \"#utility.yul\":4647:4652   */\n      dup2\n        /* \"#utility.yul\":4615:4653   */\n      tag_41\n      jump\t// in\n    tag_108:\n        /* \"#utility.yul\":4699:4728   */\n      tag_109\n        /* \"#utility.yul\":4717:4727   */\n      dup5\n        /* \"#utility.yul\":4699:4728   */\n      tag_42\n      jump\t// in\n    tag_109:\n        /* \"#utility.yul\":4689:4697   */\n      dup2\n        /* \"#utility.yul\":4685:4729   */\n      add\n        /* \"#utility.yul\":4882:4884   */\n      0x20\n        /* \"#utility.yul\":4870:4880   */\n      dup6\n        /* \"#utility.yul\":4867:4885   */\n      lt\n        /* \"#utility.yul\":4864:4913   */\n      iszero\n      tag_110\n      jumpi\n        /* \"#utility.yul\":4903:4911   */\n      dup2\n        /* \"#utility.yul\":4888:4911   */\n      swap1\n      pop\n        /* \"#utility.yul\":4864:4913   */\n    tag_110:\n        /* \"#utility.yul\":4926:5006   */\n      tag_111\n        /* \"#utility.yul\":4982:5004   */\n      tag_112\n        /* \"#utility.yul\":5000:5003   */\n      dup6\n        /* \"#utility.yul\":4982:5004   */\n      tag_42\n      jump\t// in\n    tag_112:\n        /* \"#utility.yul\":4972:4980   */\n      dup4\n        /* \"#utility.yul\":4968:5005   */\n      add\n        /* \"#utility.yul\":4955:4966   */\n      dup3\n        /* \"#utility.yul\":4926:5006   */\n      tag_51\n      jump\t// in\n    tag_111:\n        /* \"#utility.yul\":4585:5016   */\n      pop\n      pop\n        /* \"#utility.yul\":4570:5016   */\n    tag_107:\n        /* \"#utility.yul\":4480:5023   */\n      pop\n      pop\n      pop\n      jump\t// out\n        /* \"#utility.yul\":5029:5146   */\n    tag_53:\n        /* \"#utility.yul\":5083:5091   */\n      0x00\n        /* \"#utility.yul\":5133:5138   */\n      dup3\n        /* \"#utility.yul\":5127:5131   */\n      dup3\n        /* \"#utility.yul\":5123:5139   */\n      shr\n        /* \"#utility.yul\":5102:5139   */\n      swap1\n      pop\n        /* \"#utility.yul\":5029:5146   */\n      swap3\n      swap2\n      pop\n      pop\n      jump\t// out\n        /* \"#utility.yul\":5152:5321   */\n    tag_54:\n        /* \"#utility.yul\":5196:5202   */\n      0x00\n        /* \"#utility.yul\":5229:5280   */\n      tag_115\n        /* \"#utility.yul\":5277:5278   */\n      0x00\n        /* \"#utility.yul\":5273:5279   */\n      not\n        /* \"#utility.yul\":5265:5270   */\n      dup5\n        /* \"#utility.yul\":5262:5263   */\n      0x08\n        /* \"#utility.yul\":5258:5271   */\n      mul\n        /* \"#utility.yul\":5229:5280   */\n      tag_53\n      jump\t// in\n    tag_115:\n        /* \"#utility.yul\":5225:5281   */\n      not\n        /* \"#utility.yul\":5310:5314   */\n      dup1\n        /* \"#utility.yul\":5304:5308   */\n      dup4\n        /* \"#utility.yul\":5300:5315   */\n      and\n        /* \"#utility.yul\":5290:5315   */\n      swap2\n      pop\n        /* \"#utility.yul\":5203:5321   */\n      pop\n        /* \"#utility.yul\":5152:5321   */\n      swap3\n      swap2\n      pop\n      pop\n      jump\t// out\n        /* \"#utility.yul\":5326:5621   */\n    tag_55:\n        /* \"#utility.yul\":5402:5406   */\n      0x00\n        /* \"#utility.yul\":5548:5577   */\n      tag_117\n        /* \"#utility.yul\":5573:5576   */\n      dup4\n        /* \"#utility.yul\":5567:5571   */\n      dup4\n        /* \"#utility.yul\":5548:5577   */\n      tag_54\n      jump\t// in\n    tag_117:\n        /* \"#utility.yul\":5540:5577   */\n      swap2\n      pop\n        /* \"#utility.yul\":5610:5613   */\n      dup3\n        /* \"#utility.yul\":5607:5608   */\n      0x02\n        /* \"#utility.yul\":5603:5614   */\n      mul\n        /* \"#utility.yul\":5597:5601   */\n      dup3\n        /* \"#utility.yul\":5594:5615   */\n      or\n        /* \"#utility.yul\":5586:5615   */\n      swap1\n      pop\n        /* \"#utility.yul\":5326:5621   */\n      swap3\n      swap2\n      pop\n      pop\n      jump\t// out\n        /* \"#utility.yul\":5626:7021   */\n    tag_25:\n        /* \"#utility.yul\":5743:5780   */\n      tag_119\n        /* \"#utility.yul\":5776:5779   */\n      dup3\n        /* \"#utility.yul\":5743:5780   */\n      tag_32\n      jump\t// in\n    tag_119:\n        /* \"#utility.yul\":5845:5863   */\n      0xffffffffffffffff\n        /* \"#utility.yul\":5837:5843   */\n      dup2\n        /* \"#utility.yul\":5834:5864   */\n      gt\n        /* \"#utility.yul\":5831:5887   */\n      iszero\n      tag_120\n      jumpi\n        /* \"#utility.yul\":5867:5885   */\n      tag_121\n      tag_40\n      jump\t// in\n    tag_121:\n        /* \"#utility.yul\":5831:5887   */\n    tag_120:\n        /* \"#utility.yul\":5911:5949   */\n      tag_122\n        /* \"#utility.yul\":5943:5947   */\n      dup3\n        /* \"#utility.yul\":5937:5948   */\n      sload\n        /* \"#utility.yul\":5911:5949   */\n      tag_18\n      jump\t// in\n    tag_122:\n        /* \"#utility.yul\":5996:6063   */\n      tag_123\n        /* \"#utility.yul\":6056:6062   */\n      dup3\n        /* \"#utility.yul\":6048:6054   */\n      dup3\n        /* \"#utility.yul\":6042:6046   */\n      dup6\n        /* \"#utility.yul\":5996:6063   */\n      tag_52\n      jump\t// in\n    tag_123:\n        /* \"#utility.yul\":6090:6091   */\n      0x00\n        /* \"#utility.yul\":6114:6118   */\n      0x20\n        /* \"#utility.yul\":6101:6118   */\n      swap1\n      pop\n        /* \"#utility.yul\":6146:6148   */\n      0x1f\n        /* \"#utility.yul\":6138:6144   */\n      dup4\n        /* \"#utility.yul\":6135:6149   */\n      gt\n        /* \"#utility.yul\":6163:6164   */\n      0x01\n        /* \"#utility.yul\":6158:6776   */\n      dup2\n      eq\n      tag_125\n      jumpi\n        /* \"#utility.yul\":6820:6821   */\n      0x00\n        /* \"#utility.yul\":6837:6843   */\n      dup5\n        /* \"#utility.yul\":6834:6911   */\n      iszero\n      tag_126\n      jumpi\n        /* \"#utility.yul\":6886:6895   */\n      dup3\n        /* \"#utility.yul\":6881:6884   */\n      dup8\n        /* \"#utility.yul\":6877:6896   */\n      add\n        /* \"#utility.yul\":6871:6897   */\n      mload\n        /* \"#utility.yul\":6862:6897   */\n      swap1\n      pop\n        /* \"#utility.yul\":6834:6911   */\n    tag_126:\n        /* \"#utility.yul\":6937:7004   */\n      tag_127\n        /* \"#utility.yul\":6997:7003   */\n      dup6\n        /* \"#utility.yul\":6990:6995   */\n      dup3\n        /* \"#utility.yul\":6937:7004   */\n      tag_55\n      jump\t// in\n    tag_127:\n        /* \"#utility.yul\":6931:6935   */\n      dup7\n        /* \"#utility.yul\":6924:7005   */\n      sstore\n        /* \"#utility.yul\":6793:7015   */\n      pop\n        /* \"#utility.yul\":6128:7015   */\n      jump(tag_124)\n        /* \"#utility.yul\":6158:6776   */\n    tag_125:\n        /* \"#utility.yul\":6210:6214   */\n      0x1f\n        /* \"#utility.yul\":6206:6215   */\n      not\n        /* \"#utility.yul\":6198:6204   */\n      dup5\n        /* \"#utility.yul\":6194:6216   */\n      and\n        /* \"#utility.yul\":6244:6281   */\n      tag_128\n        /* \"#utility.yul\":6276:6280   */\n      dup7\n        /* \"#utility.yul\":6244:6281   */\n      tag_41\n      jump\t// in\n    tag_128:\n        /* \"#utility.yul\":6303:6304   */\n      0x00\n        /* \"#utility.yul\":6317:6525   */\n    tag_129:\n        /* \"#utility.yul\":6331:6338   */\n      dup3\n        /* \"#utility.yul\":6328:6329   */\n      dup2\n        /* \"#utility.yul\":6325:6339   */\n      lt\n        /* \"#utility.yul\":6317:6525   */\n      iszero\n      tag_131\n      jumpi\n        /* \"#utility.yul\":6410:6419   */\n      dup5\n        /* \"#utility.yul\":6405:6408   */\n      dup10\n        /* \"#utility.yul\":6401:6420   */\n      add\n        /* \"#utility.yul\":6395:6421   */\n      mload\n        /* \"#utility.yul\":6387:6393   */\n      dup3\n        /* \"#utility.yul\":6380:6422   */\n      sstore\n        /* \"#utility.yul\":6461:6462   */\n      0x01\n        /* \"#utility.yul\":6453:6459   */\n      dup3\n        /* \"#utility.yul\":6449:6463   */\n      add\n        /* \"#utility.yul\":6439:6463   */\n      swap2\n      pop\n        /* \"#utility.yul\":6508:6510   */\n      0x20\n        /* \"#utility.yul\":6497:6506   */\n      dup6\n        /* \"#utility.yul\":6493:6511   */\n      add\n        /* \"#utility.yul\":6480:6511   */\n      swap5\n      pop\n        /* \"#utility.yul\":6354:6358   */\n      0x20\n        /* \"#utility.yul\":6351:6352   */\n      dup2\n        /* \"#utility.yul\":6347:6359   */\n      add\n        /* \"#utility.yul\":6342:6359   */\n      swap1\n      pop\n        /* \"#utility.yul\":6317:6525   */\n      jump(tag_129)\n    tag_131:\n        /* \"#utility.yul\":6553:6559   */\n      dup7\n        /* \"#utility.yul\":6544:6551   */\n      dup4\n        /* \"#utility.yul\":6541:6560   */\n      lt\n        /* \"#utility.yul\":6538:6717   */\n      iszero\n      tag_132\n      jumpi\n        /* \"#utility.yul\":6611:6620   */\n      dup5\n        /* \"#utility.yul\":6606:6609   */\n      dup10\n        /* \"#utility.yul\":6602:6621   */\n      add\n        /* \"#utility.yul\":6596:6622   */\n      mload\n        /* \"#utility.yul\":6654:6702   */\n      tag_133\n        /* \"#utility.yul\":6696:6700   */\n      0x1f\n        /* \"#utility.yul\":6688:6694   */\n      dup10\n        /* \"#utility.yul\":6684:6701   */\n      and\n        /* \"#utility.yul\":6673:6682   */\n      dup3\n        /* \"#utility.yul\":6654:6702   */\n      tag_54\n      jump\t// in\n    tag_133:\n        /* \"#utility.yul\":6646:6652   */\n      dup4\n        /* \"#utility.yul\":6639:6703   */\n      sstore\n        /* \"#utility.yul\":6561:6717   */\n      pop\n        /* \"#utility.yul\":6538:6717   */\n    tag_132:\n        /* \"#utility.yul\":6763:6764   */\n      0x01\n        /* \"#utility.yul\":6759:6760   */\n      0x02\n        /* \"#utility.yul\":6751:6757   */\n      dup9\n        /* \"#utility.yul\":6747:6761   */\n      mul\n        /* \"#utility.yul\":6743:6765   */\n      add\n        /* \"#utility.yul\":6737:6741   */\n      dup9\n        /* \"#utility.yul\":6730:6766   */\n      sstore\n        /* \"#utility.yul\":6165:6776   */\n      pop\n      pop\n      pop\n        /* \"#utility.yul\":6128:7015   */\n    tag_124:\n      pop\n        /* \"#utility.yul\":5718:7021   */\n      pop\n      pop\n      pop\n        /* \"#utility.yul\":5626:7021   */\n      pop\n      pop\n      jump\t// out\n\n    auxdata: 0xa26469706673582212200086c5837c0315b2338a541d50fa59a7814d2582e1982986507615e9843e6e2464736f6c634300081a0033\n}\n",
				"bytecode": {
					"linkReferences": {},
					"object": "60806040525f805f6101000a81548160ff021916908360028111156024576023605e565b5b02179055505f8060016101000a81548160ff02191690836001811115604a576049605e565b5b02179055503480156059575f80fd5b50608b565b7f4e487b71000000000000000000000000000000000000000000000000000000005f52602160045260245ffd5b610656806100985f395ff3fe608060405234801561000f575f80fd5b506004361061003f575f3560e01c806317d7de7c1461004357806323e898e91461006157806369dd98071461006b575b5f80fd5b61004b61008b565b60405161005891906102b6565b60405180910390f35b61006961011d565b005b61007361019e565b604051610082939291906102ee565b60405180910390f35b606060015f01805461009c90610357565b80601f01602080910402602001604051908101604052809291908181526020018280546100c890610357565b80156101135780601f106100ea57610100808354040283529160200191610113565b820191905f5260205f20905b8154815290600101906020018083116100f657829003601f168201915b5050505050905090565b60405180606001604052806040518060400160405280600881526020017f6a6f686e20646f650000000000000000000000000000000000000000000000008152508152602001600a8152602001600181525060015f820151815f0190816101849190610551565b506020820151816001015560408201518160020155905050565b60605f8060015f0160018001546001600201548280546101bd90610357565b80601f01602080910402602001604051908101604052809291908181526020018280546101e990610357565b80156102345780601f1061020b57610100808354040283529160200191610234565b820191905f5260205f20905b81548152906001019060200180831161021757829003601f168201915b50505050509250925092509250909192565b5f81519050919050565b5f82825260208201905092915050565b8281835e5f83830152505050565b5f601f19601f8301169050919050565b5f61028882610246565b6102928185610250565b93506102a2818560208601610260565b6102ab8161026e565b840191505092915050565b5f6020820190508181035f8301526102ce818461027e565b905092915050565b5f819050919050565b6102e8816102d6565b82525050565b5f6060820190508181035f830152610306818661027e565b905061031560208301856102df565b61032260408301846102df565b949350505050565b7f4e487b71000000000000000000000000000000000000000000000000000000005f52602260045260245ffd5b5f600282049050600182168061036e57607f821691505b6020821081036103815761038061032a565b5b50919050565b7f4e487b71000000000000000000000000000000000000000000000000000000005f52604160045260245ffd5b5f819050815f5260205f209050919050565b5f6020601f8301049050919050565b5f82821b905092915050565b5f600883026104107fffffffffffffffffffffffffffffffffffffffffffffffffffffffffffffffff826103d5565b61041a86836103d5565b95508019841693508086168417925050509392505050565b5f819050919050565b5f61045561045061044b846102d6565b610432565b6102d6565b9050919050565b5f819050919050565b61046e8361043b565b61048261047a8261045c565b8484546103e1565b825550505050565b5f90565b61049661048a565b6104a1818484610465565b505050565b5b818110156104c4576104b95f8261048e565b6001810190506104a7565b5050565b601f821115610509576104da816103b4565b6104e3846103c6565b810160208510156104f2578190505b6105066104fe856103c6565b8301826104a6565b50505b505050565b5f82821c905092915050565b5f6105295f198460080261050e565b1980831691505092915050565b5f610541838361051a565b9150826002028217905092915050565b61055a82610246565b67ffffffffffffffff81111561057357610572610387565b5b61057d8254610357565b6105888282856104c8565b5f60209050601f8311600181146105b9575f84156105a7578287015190505b6105b18582610536565b865550610618565b601f1984166105c7866103b4565b5f5b828110156105ee578489015182556001820191506020850194506020810190506105c9565b8683101561060b5784890151610607601f89168261051a565b8355505b6001600288020188555050505b50505050505056fea26469706673582212200086c5837c0315b2338a541d50fa59a7814d2582e1982986507615e9843e6e2464736f6c634300081a0033",
					"opcodes": "PUSH1 0x80 PUSH1 0x40 MSTORE PUSH0 DUP1 PUSH0 PUSH2 0x100 EXP DUP2 SLOAD DUP2 PUSH1 0xFF MUL NOT AND SWAP1 DUP4 PUSH1 0x2 DUP2 GT ISZERO PUSH1 0x24 JUMPI PUSH1 0x23 PUSH1 0x5E JUMP JUMPDEST JUMPDEST MUL OR SWAP1 SSTORE POP PUSH0 DUP1 PUSH1 0x1 PUSH2 0x100 EXP DUP2 SLOAD DUP2 PUSH1 0xFF MUL NOT AND SWAP1 DUP4 PUSH1 0x1 DUP2 GT ISZERO PUSH1 0x4A JUMPI PUSH1 0x49 PUSH1 0x5E JUMP JUMPDEST JUMPDEST MUL OR SWAP1 SSTORE POP CALLVALUE DUP1 ISZERO PUSH1 0x59 JUMPI PUSH0 DUP1 REVERT JUMPDEST POP PUSH1 0x8B JUMP JUMPDEST PUSH32 0x4E487B7100000000000000000000000000000000000000000000000000000000 PUSH0 MSTORE PUSH1 0x21 PUSH1 0x4 MSTORE PUSH1 0x24 PUSH0 REVERT JUMPDEST PUSH2 0x656 DUP1 PUSH2 0x98 PUSH0 CODECOPY PUSH0 RETURN INVALID PUSH1 0x80 PUSH1 0x40 MSTORE CALLVALUE DUP1 ISZERO PUSH2 0xF JUMPI PUSH0 DUP1 REVERT JUMPDEST POP PUSH1 0x4 CALLDATASIZE LT PUSH2 0x3F JUMPI PUSH0 CALLDATALOAD PUSH1 0xE0 SHR DUP1 PUSH4 0x17D7DE7C EQ PUSH2 0x43 JUMPI DUP1 PUSH4 0x23E898E9 EQ PUSH2 0x61 JUMPI DUP1 PUSH4 0x69DD9807 EQ PUSH2 0x6B JUMPI JUMPDEST PUSH0 DUP1 REVERT JUMPDEST PUSH2 0x4B PUSH2 0x8B JUMP JUMPDEST PUSH1 0x40 MLOAD PUSH2 0x58 SWAP2 SWAP1 PUSH2 0x2B6 JUMP JUMPDEST PUSH1 0x40 MLOAD DUP1 SWAP2 SUB SWAP1 RETURN JUMPDEST PUSH2 0x69 PUSH2 0x11D JUMP JUMPDEST STOP JUMPDEST PUSH2 0x73 PUSH2 0x19E JUMP JUMPDEST PUSH1 0x40 MLOAD PUSH2 0x82 SWAP4 SWAP3 SWAP2 SWAP1 PUSH2 0x2EE JUMP JUMPDEST PUSH1 0x40 MLOAD DUP1 SWAP2 SUB SWAP1 RETURN JUMPDEST PUSH1 0x60 PUSH1 0x1 PUSH0 ADD DUP1 SLOAD PUSH2 0x9C SWAP1 PUSH2 0x357 JUMP JUMPDEST DUP1 PUSH1 0x1F ADD PUSH1 0x20 DUP1 SWAP2 DIV MUL PUSH1 0x20 ADD PUSH1 0x40 MLOAD SWAP1 DUP2 ADD PUSH1 0x40 MSTORE DUP1 SWAP3 SWAP2 SWAP1 DUP2 DUP2 MSTORE PUSH1 0x20 ADD DUP3 DUP1 SLOAD PUSH2 0xC8 SWAP1 PUSH2 0x357 JUMP JUMPDEST DUP1 ISZERO PUSH2 0x113 JUMPI DUP1 PUSH1 0x1F LT PUSH2 0xEA JUMPI PUSH2 0x100 DUP1 DUP4 SLOAD DIV MUL DUP4 MSTORE SWAP2 PUSH1 0x20 ADD SWAP2 PUSH2 0x113 JUMP JUMPDEST DUP3 ADD SWAP2 SWAP1 PUSH0 MSTORE PUSH1 0x20 PUSH0 KECCAK256 SWAP1 JUMPDEST DUP2 SLOAD DUP2 MSTORE SWAP1 PUSH1 0x1 ADD SWAP1 PUSH1 0x20 ADD DUP1 DUP4 GT PUSH2 0xF6 JUMPI DUP3 SWAP1 SUB PUSH1 0x1F AND DUP3 ADD SWAP2 JUMPDEST POP POP POP POP POP SWAP1 POP SWAP1 JUMP JUMPDEST PUSH1 0x40 MLOAD DUP1 PUSH1 0x60 ADD PUSH1 0x40 MSTORE DUP1 PUSH1 0x40 MLOAD DUP1 PUSH1 0x40 ADD PUSH1 0x40 MSTORE DUP1 PUSH1 0x8 DUP2 MSTORE PUSH1 0x20 ADD PUSH32 0x6A6F686E20646F65000000000000000000000000000000000000000000000000 DUP2 MSTORE POP DUP2 MSTORE PUSH1 0x20 ADD PUSH1 0xA DUP2 MSTORE PUSH1 0x20 ADD PUSH1 0x1 DUP2 MSTORE POP PUSH1 0x1 PUSH0 DUP3 ADD MLOAD DUP2 PUSH0 ADD SWAP1 DUP2 PUSH2 0x184 SWAP2 SWAP1 PUSH2 0x551 JUMP JUMPDEST POP PUSH1 0x20 DUP3 ADD MLOAD DUP2 PUSH1 0x1 ADD SSTORE PUSH1 0x40 DUP3 ADD MLOAD DUP2 PUSH1 0x2 ADD SSTORE SWAP1 POP POP JUMP JUMPDEST PUSH1 0x60 PUSH0 DUP1 PUSH1 0x1 PUSH0 ADD PUSH1 0x1 DUP1 ADD SLOAD PUSH1 0x1 PUSH1 0x2 ADD SLOAD DUP3 DUP1 SLOAD PUSH2 0x1BD SWAP1 PUSH2 0x357 JUMP JUMPDEST DUP1 PUSH1 0x1F ADD PUSH1 0x20 DUP1 SWAP2 DIV MUL PUSH1 0x20 ADD PUSH1 0x40 MLOAD SWAP1 DUP2 ADD PUSH1 0x40 MSTORE DUP1 SWAP3 SWAP2 SWAP1 DUP2 DUP2 MSTORE PUSH1 0x20 ADD DUP3 DUP1 SLOAD PUSH2 0x1E9 SWAP1 PUSH2 0x357 JUMP JUMPDEST DUP1 ISZERO PUSH2 0x234 JUMPI DUP1 PUSH1 0x1F LT PUSH2 0x20B JUMPI PUSH2 0x100 DUP1 DUP4 SLOAD DIV MUL DUP4 MSTORE SWAP2 PUSH1 0x20 ADD SWAP2 PUSH2 0x234 JUMP JUMPDEST DUP3 ADD SWAP2 SWAP1 PUSH0 MSTORE PUSH1 0x20 PUSH0 KECCAK256 SWAP1 JUMPDEST DUP2 SLOAD DUP2 MSTORE SWAP1 PUSH1 0x1 ADD SWAP1 PUSH1 0x20 ADD DUP1 DUP4 GT PUSH2 0x217 JUMPI DUP3 SWAP1 SUB PUSH1 0x1F AND DUP3 ADD SWAP2 JUMPDEST POP POP POP POP POP SWAP3 POP SWAP3 POP SWAP3 POP SWAP3 POP SWAP1 SWAP2 SWAP3 JUMP JUMPDEST PUSH0 DUP2 MLOAD SWAP1 POP SWAP2 SWAP1 POP JUMP JUMPDEST PUSH0 DUP3 DUP3 MSTORE PUSH1 0x20 DUP3 ADD SWAP1 POP SWAP3 SWAP2 POP POP JUMP JUMPDEST DUP3 DUP2 DUP4 MCOPY PUSH0 DUP4 DUP4 ADD MSTORE POP POP POP JUMP JUMPDEST PUSH0 PUSH1 0x1F NOT PUSH1 0x1F DUP4 ADD AND SWAP1 POP SWAP2 SWAP1 POP JUMP JUMPDEST PUSH0 PUSH2 0x288 DUP3 PUSH2 0x246 JUMP JUMPDEST PUSH2 0x292 DUP2 DUP6 PUSH2 0x250 JUMP JUMPDEST SWAP4 POP PUSH2 0x2A2 DUP2 DUP6 PUSH1 0x20 DUP7 ADD PUSH2 0x260 JUMP JUMPDEST PUSH2 0x2AB DUP2 PUSH2 0x26E JUMP JUMPDEST DUP5 ADD SWAP2 POP POP SWAP3 SWAP2 POP POP JUMP JUMPDEST PUSH0 PUSH1 0x20 DUP3 ADD SWAP1 POP DUP2 DUP2 SUB PUSH0 DUP4 ADD MSTORE PUSH2 0x2CE DUP2 DUP5 PUSH2 0x27E JUMP JUMPDEST SWAP1 POP SWAP3 SWAP2 POP POP JUMP JUMPDEST PUSH0 DUP2 SWAP1 POP SWAP2 SWAP1 POP JUMP JUMPDEST PUSH2 0x2E8 DUP2 PUSH2 0x2D6 JUMP JUMPDEST DUP3 MSTORE POP POP JUMP JUMPDEST PUSH0 PUSH1 0x60 DUP3 ADD SWAP1 POP DUP2 DUP2 SUB PUSH0 DUP4 ADD MSTORE PUSH2 0x306 DUP2 DUP7 PUSH2 0x27E JUMP JUMPDEST SWAP1 POP PUSH2 0x315 PUSH1 0x20 DUP4 ADD DUP6 PUSH2 0x2DF JUMP JUMPDEST PUSH2 0x322 PUSH1 0x40 DUP4 ADD DUP5 PUSH2 0x2DF JUMP JUMPDEST SWAP5 SWAP4 POP POP POP POP JUMP JUMPDEST PUSH32 0x4E487B7100000000000000000000000000000000000000000000000000000000 PUSH0 MSTORE PUSH1 0x22 PUSH1 0x4 MSTORE PUSH1 0x24 PUSH0 REVERT JUMPDEST PUSH0 PUSH1 0x2 DUP3 DIV SWAP1 POP PUSH1 0x1 DUP3 AND DUP1 PUSH2 0x36E JUMPI PUSH1 0x7F DUP3 AND SWAP2 POP JUMPDEST PUSH1 0x20 DUP3 LT DUP2 SUB PUSH2 0x381 JUMPI PUSH2 0x380 PUSH2 0x32A JUMP JUMPDEST JUMPDEST POP SWAP2 SWAP1 POP JUMP JUMPDEST PUSH32 0x4E487B7100000000000000000000000000000000000000000000000000000000 PUSH0 MSTORE PUSH1 0x41 PUSH1 0x4 MSTORE PUSH1 0x24 PUSH0 REVERT JUMPDEST PUSH0 DUP2 SWAP1 POP DUP2 PUSH0 MSTORE PUSH1 0x20 PUSH0 KECCAK256 SWAP1 POP SWAP2 SWAP1 POP JUMP JUMPDEST PUSH0 PUSH1 0x20 PUSH1 0x1F DUP4 ADD DIV SWAP1 POP SWAP2 SWAP1 POP JUMP JUMPDEST PUSH0 DUP3 DUP3 SHL SWAP1 POP SWAP3 SWAP2 POP POP JUMP JUMPDEST PUSH0 PUSH1 0x8 DUP4 MUL PUSH2 0x410 PUSH32 0xFFFFFFFFFFFFFFFFFFFFFFFFFFFFFFFFFFFFFFFFFFFFFFFFFFFFFFFFFFFFFFFF DUP3 PUSH2 0x3D5 JUMP JUMPDEST PUSH2 0x41A DUP7 DUP4 PUSH2 0x3D5 JUMP JUMPDEST SWAP6 POP DUP1 NOT DUP5 AND SWAP4 POP DUP1 DUP7 AND DUP5 OR SWAP3 POP POP POP SWAP4 SWAP3 POP POP POP JUMP JUMPDEST PUSH0 DUP2 SWAP1 POP SWAP2 SWAP1 POP JUMP JUMPDEST PUSH0 PUSH2 0x455 PUSH2 0x450 PUSH2 0x44B DUP5 PUSH2 0x2D6 JUMP JUMPDEST PUSH2 0x432 JUMP JUMPDEST PUSH2 0x2D6 JUMP JUMPDEST SWAP1 POP SWAP2 SWAP1 POP JUMP JUMPDEST PUSH0 DUP2 SWAP1 POP SWAP2 SWAP1 POP JUMP JUMPDEST PUSH2 0x46E DUP4 PUSH2 0x43B JUMP JUMPDEST PUSH2 0x482 PUSH2 0x47A DUP3 PUSH2 0x45C JUMP JUMPDEST DUP5 DUP5 SLOAD PUSH2 0x3E1 JUMP JUMPDEST DUP3 SSTORE POP POP POP POP JUMP JUMPDEST PUSH0 SWAP1 JUMP JUMPDEST PUSH2 0x496 PUSH2 0x48A JUMP JUMPDEST PUSH2 0x4A1 DUP2 DUP5 DUP5 PUSH2 0x465 JUMP JUMPDEST POP POP POP JUMP JUMPDEST JUMPDEST DUP2 DUP2 LT ISZERO PUSH2 0x4C4 JUMPI PUSH2 0x4B9 PUSH0 DUP3 PUSH2 0x48E JUMP JUMPDEST PUSH1 0x1 DUP2 ADD SWAP1 POP PUSH2 0x4A7 JUMP JUMPDEST POP POP JUMP JUMPDEST PUSH1 0x1F DUP3 GT ISZERO PUSH2 0x509 JUMPI PUSH2 0x4DA DUP2 PUSH2 0x3B4 JUMP JUMPDEST PUSH2 0x4E3 DUP5 PUSH2 0x3C6 JUMP JUMPDEST DUP2 ADD PUSH1 0x20 DUP6 LT ISZERO PUSH2 0x4F2 JUMPI DUP2 SWAP1 POP JUMPDEST PUSH2 0x506 PUSH2 0x4FE DUP6 PUSH2 0x3C6 JUMP JUMPDEST DUP4 ADD DUP3 PUSH2 0x4A6 JUMP JUMPDEST POP POP JUMPDEST POP POP POP JUMP JUMPDEST PUSH0 DUP3 DUP3 SHR SWAP1 POP SWAP3 SWAP2 POP POP JUMP JUMPDEST PUSH0 PUSH2 0x529 PUSH0 NOT DUP5 PUSH1 0x8 MUL PUSH2 0x50E JUMP JUMPDEST NOT DUP1 DUP4 AND SWAP2 POP POP SWAP3 SWAP2 POP POP JUMP JUMPDEST PUSH0 PUSH2 0x541 DUP4 DUP4 PUSH2 0x51A JUMP JUMPDEST SWAP2 POP DUP3 PUSH1 0x2 MUL DUP3 OR SWAP1 POP SWAP3 SWAP2 POP POP JUMP JUMPDEST PUSH2 0x55A DUP3 PUSH2 0x246 JUMP JUMPDEST PUSH8 0xFFFFFFFFFFFFFFFF DUP2 GT ISZERO PUSH2 0x573 JUMPI PUSH2 0x572 PUSH2 0x387 JUMP JUMPDEST JUMPDEST PUSH2 0x57D DUP3 SLOAD PUSH2 0x357 JUMP JUMPDEST PUSH2 0x588 DUP3 DUP3 DUP6 PUSH2 0x4C8 JUMP JUMPDEST PUSH0 PUSH1 0x20 SWAP1 POP PUSH1 0x1F DUP4 GT PUSH1 0x1 DUP2 EQ PUSH2 0x5B9 JUMPI PUSH0 DUP5 ISZERO PUSH2 0x5A7 JUMPI DUP3 DUP8 ADD MLOAD SWAP1 POP JUMPDEST PUSH2 0x5B1 DUP6 DUP3 PUSH2 0x536 JUMP JUMPDEST DUP7 SSTORE POP PUSH2 0x618 JUMP JUMPDEST PUSH1 0x1F NOT DUP5 AND PUSH2 0x5C7 DUP7 PUSH2 0x3B4 JUMP JUMPDEST PUSH0 JUMPDEST DUP3 DUP2 LT ISZERO PUSH2 0x5EE JUMPI DUP5 DUP10 ADD MLOAD DUP3 SSTORE PUSH1 0x1 DUP3 ADD SWAP2 POP PUSH1 0x20 DUP6 ADD SWAP5 POP PUSH1 0x20 DUP2 ADD SWAP1 POP PUSH2 0x5C9 JUMP JUMPDEST DUP7 DUP4 LT ISZERO PUSH2 0x60B JUMPI DUP5 DUP10 ADD MLOAD PUSH2 0x607 PUSH1 0x1F DUP10 AND DUP3 PUSH2 0x51A JUMP JUMPDEST DUP4 SSTORE POP JUMPDEST PUSH1 0x1 PUSH1 0x2 DUP9 MUL ADD DUP9 SSTORE POP POP POP JUMPDEST POP POP POP POP POP POP JUMP INVALID LOG2 PUSH5 0x6970667358 0x22 SLT KECCAK256 STOP DUP7 0xC5 DUP4 PUSH29 0x315B2338A541D50FA59A7814D2582E1982986507615E9843E6E246473 PUSH16 0x6C634300081A00330000000000000000 "
				},
				"gasEstimates": {
					"creation": {
						"codeDepositCost": "324400",
						"executionCost": "48993",
						"totalCost": "373393"
					},
					"external": {
						"getFullInfo()": "infinite",
						"getName()": "infinite",
						"setStudent()": "infinite"
					}
				},
				"methodIdentifiers": {
					"getFullInfo()": "69dd9807",
					"getName()": "17d7de7c",
					"setStudent()": "23e898e9"
				}
			},
			"storageLayout": {
				"storage": [
					{
						"astId": 21,
						"contract": "contracts/GSP SOD TRAINING/hello1.sol:EnumData",
						"label": "choice",
						"offset": 0,
						"slot": "0",
						"type": "t_enum(Size)13"
					},
					{
						"astId": 26,
						"contract": "contracts/GSP SOD TRAINING/hello1.sol:EnumData",
						"label": "mygender",
						"offset": 1,
						"slot": "0",
						"type": "t_enum(Gender)16"
					},
					{
						"astId": 36,
						"contract": "contracts/GSP SOD TRAINING/hello1.sol:EnumData",
						"label": "s1",
						"offset": 0,
						"slot": "1",
						"type": "t_struct(Student)33_storage"
					}
				],
				"types": {
					"t_enum(Gender)16": {
						"encoding": "inplace",
						"label": "enum EnumData.Gender",
						"numberOfBytes": "1"
					},
					"t_enum(Size)13": {
						"encoding": "inplace",
						"label": "enum EnumData.Size",
						"numberOfBytes": "1"
					},
					"t_string_storage": {
						"encoding": "bytes",
						"label": "string",
						"numberOfBytes": "32"
					},
					"t_struct(Student)33_storage": {
						"encoding": "inplace",
						"label": "struct EnumData.Student",
						"members": [
							{
								"astId": 28,
								"contract": "contracts/GSP SOD TRAINING/hello1.sol:EnumData",
								"label": "name",
								"offset": 0,
								"slot": "0",
								"type": "t_string_storage"
							},
							{
								"astId": 30,
								"contract": "contracts/GSP SOD TRAINING/hello1.sol:EnumData",
								"label": "age",
								"offset": 0,
								"slot": "1",
								"type": "t_uint256"
							},
							{
								"astId": 32,
								"contract": "contracts/GSP SOD TRAINING/hello1.sol:EnumData",
								"label": "id",
								"offset": 0,
								"slot": "2",
								"type": "t_uint256"
							}
						],
						"numberOfBytes": "96"
					},
					"t_uint256": {
						"encoding": "inplace",
						"label": "uint256",
						"numberOfBytes": "32"
					}
				}
			},
			"userdoc": {
				"kind": "user",
				"methods": {},
				"version": 1
			}
		}
	}
}