{
	"data": {
		"bytecode": {
			"linkReferences": {},
			"object": "6080604052348015600e575f80fd5b50600a5f819055506101f4806100235f395ff3fe608060405234801561000f575f80fd5b5060043610610034575f3560e01c8063296d9ac214610038578063dab680dc14610056575b5f80fd5b610040610077565b60405161004d91906100c3565b60405180910390f35b61005e610095565b60405161006e949392919061011b565b60405180910390f35b5f80606490505f80548261008b919061018b565b9050809250505090565b5f805f8033935042925043915030905090919293565b5f819050919050565b6100bd816100ab565b82525050565b5f6020820190506100d65f8301846100b4565b92915050565b5f73ffffffffffffffffffffffffffffffffffffffff82169050919050565b5f610105826100dc565b9050919050565b610115816100fb565b82525050565b5f60808201905061012e5f83018761010c565b61013b60208301866100b4565b61014860408301856100b4565b610155606083018461010c565b95945050505050565b7f4e487b71000000000000000000000000000000000000000000000000000000005f52601160045260245ffd5b5f610195826100ab565b91506101a0836100ab565b92508282019050808211156101b8576101b761015e565b5b9291505056fea2646970667358221220c12398b668c51af567c91203cfc9712cdb278a63364084d4946f9da7fb22f2f264736f6c634300081a0033",
			"opcodes": "PUSH1 0x80 PUSH1 0x40 MSTORE CALLVALUE DUP1 ISZERO PUSH1 0xE JUMPI PUSH0 DUP1 REVERT JUMPDEST POP PUSH1 0xA PUSH0 DUP2 SWAP1 SSTORE POP PUSH2 0x1F4 DUP1 PUSH2 0x23 PUSH0 CODECOPY PUSH0 RETURN INVALID PUSH1 0x80 PUSH1 0x40 MSTORE CALLVALUE DUP1 ISZERO PUSH2 0xF JUMPI PUSH0 DUP1 REVERT JUMPDEST POP PUSH1 0x4 CALLDATASIZE LT PUSH2 0x34 JUMPI PUSH0 CALLDATALOAD PUSH1 0xE0 SHR DUP1 PUSH4 0x296D9AC2 EQ PUSH2 0x38 JUMPI DUP1 PUSH4 0xDAB680DC EQ PUSH2 0x56 JUMPI JUMPDEST PUSH0 DUP1 REVERT JUMPDEST PUSH2 0x40 PUSH2 0x77 JUMP JUMPDEST PUSH1 0x40 MLOAD PUSH2 0x4D SWAP2 SWAP1 PUSH2 0xC3 JUMP JUMPDEST PUSH1 0x40 MLOAD DUP1 SWAP2 SUB SWAP1 RETURN JUMPDEST PUSH2 0x5E PUSH2 0x95 JUMP JUMPDEST PUSH1 0x40 MLOAD PUSH2 0x6E SWAP5 SWAP4 SWAP3 SWAP2 SWAP1 PUSH2 0x11B JUMP JUMPDEST PUSH1 0x40 MLOAD DUP1 SWAP2 SUB SWAP1 RETURN JUMPDEST PUSH0 DUP1 PUSH1 0x64 SWAP1 POP PUSH0 DUP1 SLOAD DUP3 PUSH2 0x8B SWAP2 SWAP1 PUSH2 0x18B JUMP JUMPDEST SWAP1 POP DUP1 SWAP3 POP POP POP SWAP1 JUMP JUMPDEST PUSH0 DUP1 PUSH0 DUP1 CALLER SWAP4 POP TIMESTAMP SWAP3 POP NUMBER SWAP2 POP ADDRESS SWAP1 POP SWAP1 SWAP2 SWAP3 SWAP4 JUMP JUMPDEST PUSH0 DUP2 SWAP1 POP SWAP2 SWAP1 POP JUMP JUMPDEST PUSH2 0xBD DUP2 PUSH2 0xAB JUMP JUMPDEST DUP3 MSTORE POP POP JUMP JUMPDEST PUSH0 PUSH1 0x20 DUP3 ADD SWAP1 POP PUSH2 0xD6 PUSH0 DUP4 ADD DUP5 PUSH2 0xB4 JUMP JUMPDEST SWAP3 SWAP2 POP POP JUMP JUMPDEST PUSH0 PUSH20 0xFFFFFFFFFFFFFFFFFFFFFFFFFFFFFFFFFFFFFFFF DUP3 AND SWAP1 POP SWAP2 SWAP1 POP JUMP JUMPDEST PUSH0 PUSH2 0x105 DUP3 PUSH2 0xDC JUMP JUMPDEST SWAP1 POP SWAP2 SWAP1 POP JUMP JUMPDEST PUSH2 0x115 DUP2 PUSH2 0xFB JUMP JUMPDEST DUP3 MSTORE POP POP JUMP JUMPDEST PUSH0 PUSH1 0x80 DUP3 ADD SWAP1 POP PUSH2 0x12E PUSH0 DUP4 ADD DUP8 PUSH2 0x10C JUMP JUMPDEST PUSH2 0x13B PUSH1 0x20 DUP4 ADD DUP7 PUSH2 0xB4 JUMP JUMPDEST PUSH2 0x148 PUSH1 0x40 DUP4 ADD DUP6 PUSH2 0xB4 JUMP JUMPDEST PUSH2 0x155 PUSH1 0x60 DUP4 ADD DUP5 PUSH2 0x10C JUMP JUMPDEST SWAP6 SWAP5 POP POP POP POP POP JUMP JUMPDEST PUSH32 0x4E487B7100000000000000000000000000000000000000000000000000000000 PUSH0 MSTORE PUSH1 0x11 PUSH1 0x4 MSTORE PUSH1 0x24 PUSH0 REVERT JUMPDEST PUSH0 PUSH2 0x195 DUP3 PUSH2 0xAB JUMP JUMPDEST SWAP2 POP PUSH2 0x1A0 DUP4 PUSH2 0xAB JUMP JUMPDEST SWAP3 POP DUP3 DUP3 ADD SWAP1 POP DUP1 DUP3 GT ISZERO PUSH2 0x1B8 JUMPI PUSH2 0x1B7 PUSH2 0x15E JUMP JUMPDEST JUMPDEST SWAP3 SWAP2 POP POP JUMP INVALID LOG2 PUSH5 0x6970667358 0x22 SLT KECCAK256 0xC1 0x23 SWAP9 0xB6 PUSH9 0xC51AF567C91203CFC9 PUSH18 0x2CDB278A63364084D4946F9DA7FB22F2F264 PUSH20 0x6F6C634300081A00330000000000000000000000 "
		},
		"gasEstimates": {
			"creation": {
				"codeDepositCost": "100000",
				"executionCost": "22258",
				"totalCost": "122258"
			},
			"external": {
				"getGlobalInfo()": "infinite",
				"getstate()": "infinite"
			}
		},
		"methodIdentifiers": {
			"getGlobalInfo()": "dab680dc",
			"getstate()": "296d9ac2"
		}
	},
	"abi": [
		{
			"inputs": [],
			"stateMutability": "nonpayable",
			"type": "constructor"
		},
		{
			"inputs": [],
			"name": "getGlobalInfo",
			"outputs": [
				{
					"internalType": "address",
					"name": "sender",
					"type": "address"
				},
				{
					"internalType": "uint256",
					"name": "timestamp",
					"type": "uint256"
				},
				{
					"internalType": "uint256",
					"name": "blockNum",
					"type": "uint256"
				},
				{
					"internalType": "address",
					"name": "contractAddress",
					"type": "address"
				}
			],
			"stateMutability": "view",
			"type": "function"
		},
		{
			"inputs": [],
			"name": "getstate",
			"outputs": [
				{
					"internalType": "uint256",
					"name": "",
					"type": "uint256"
				}
			],
			"stateMutability": "view",
			"type": "function"
		}
	]
}